:020000040800F2
:1000000068040020AD01000847110008D70F000860
:1000100045110008B9030008711200080000000033
:100020000000000000000000000000006B1100084C
:10003000BB03000800000000691100086D110008F2
:10004000C7010008C7010008C7010008C701000870
:10005000C7010008C7010008BD030008C701000868
:10006000C7010008C7010008C7010008C701000850
:10007000C7010008C7010008C7010008C701000840
:10008000C7010008C7010008C70100080000000000
:10009000000000000000000000000000C701000890
:1000A000C7010008C7010008C7010008C701000810
:1000B000C7010008C7010008C7010008C701000800
:1000C000C7010008C7010008C7010008C7010008F0
:1000D000C7010008C7010008C701000800000000B0
:1000E000C7010008C7010008C701000800000000A0
:1000F000000000000000000000000000C701000830
:1001000000000000C7010008C7010008C70100087F
:1001100000000000000000000000000000000000DF
:10012000C7010008C7010008C7010008C70100088F
:10013000C7010008000000000000000000000000EF
:10014000000000000000000000000000C7010008DF
:10015000C7010008C7010008C7010008C70100085F
:10016000C7010008C70100080000000000000000EF
:10017000000000000000000000000000000000007F
:1001800000000000C701000800000000000000009F
:10019000C7010008C7010008DFF80CD000F068F8BC
:1001A0000048004791120008680400200648804774
:1001B00006480047FEE7FEE7FEE7FEE7FEE7FEE74C
:1001C000FEE7FEE7FEE7FEE71D12000899010008C2
:1001D0002DE9F05F0546002092469B46884606467C
:1001E000814640241BE0284641464746224600F00F
:1001F0002FF853465A46C01A914110D3114618465B
:10020000224600F016F82D1A67EB01084F462246E9
:100210000120002100F00DF817EB00094E41201ECF
:10022000A4F10104DFDC484631462A464346BDE8D6
:10023000F09F202A04DB203A00FA02F100207047E8
:100240009140C2F1200320FA03F319439040704714
:10025000202A04DB203A21FA02F00021704721FA1B
:1002600002F3D040C2F12002914008431946704782
:10027000064C074D06E0E06840F0010394E80700F3
:1002800098471034AC42F6D3FFF78AFFC813000832
:10029000E8130008454910B54A6822F440324A6024
:1002A0004A6843681A434A6001684A6822F48072C7
:1002B0004A6001684A68036942EA03224A600168A9
:1002C0004A6822F040724A6001684A6883681A43AB
:1002D0004A6001688A6822F400628A6001688A685C
:1002E000C3681A438A60816A6FF07062D142016804
:1002F0008A6822F070628A6001688A680CD0836A1A
:100300001A438A6001688A6822F040528A60016854
:100310008A68C36A1A4301E022F040528A60016889
:100320008A6822F002028A6001688A68836942EA68
:1003300043028A60016A002901684A680FD042F4CA
:1003400000624A6001684A6822F460424A600168BB
:100350004A68174C436A04EB43331A4301E022F422
:1003600000624A600168CA6A22F47002CA620168C7
:10037000CA6A838B0F4C04EB03531A43CA620168A9
:100380008A6822F400728A6001688A68036B42EA14
:1003900043228A6001688A6822F480628A60016868
:1003A0008A68406942EA8020886010BD00230140CD
:1003B00000E0FFFF0000F0FFFEE77047012000F0C3
:1003C000E3B9000078B50024009490F83C20012A9D
:1003D00019D0012280F83C200A6807230568092A01
:1003E00013D9EE680A3A02EB420293409E43EE6054
:1003F0000A788B680A3A02EB420293400268D56899
:100400002B43D36010E0022078BD2E6902EB42023C
:1004100093409E432E610A788B6802EB4202934020
:10042000026815692B4313614A681F23072A13D2F8
:1004300005686E6B521E02EB820293409E436E6310
:100440000B790A885B1E92B203EB83039A40036820
:100450005D6B2A435A6327E005680D2A12D22E6B82
:10046000D21F02EB820293409E432E630B790A88CF
:10047000DB1F92B203EB83039A4003681D6B2A4390
:100480001A6311E0EE6A0D3A02EB820293409E433A
:10049000EE620B790A880D3B92B203EB83039A401C
:1004A0000368DD6A2A43DA62174B0568154A9D42E4
:1004B00006D10D68122D03D1556845F480055560AD
:1004C00005689D4219D1114D0B68AB4201D0112B2B
:1004D00013D1536843F4000353600968A9420CD157
:1004E0000B490C4A0968B1FBF2F101EB81014900AB
:1004F00000E0491E00910029FBD180F83C4000201B
:1005000078BD0000002301400020014012000010CF
:100510001C00002040420F000068C06C704770B59E
:1005200004004FF0000503D0206C002610B107E056
:10053000012070BD666484F83C60204600F01AF823
:10054000206CC00610D4206C20F4885040F00200CB
:1005500020642046FFF79EFE6664206C20F00200B7
:1005600040F00100206400E0012584F83C6028464A
:1005700070BD000000B500680C4987B0884212D1F8
:100580000B480021026842F480720260006800F4A7
:1005900080700590202000900320CDE9010169467C
:1005A000044800F0FDF807B000BD00000020014045
:1005B00044380240000002402DE9F0410446006842
:1005C0000D4681684FF0000749050BD58068C005CE
:1005D00008D5206C40F02000206484F83C70012095
:1005E000BDE8F08100F0AEF906460FE0681C0DD0C2
:1005F00025B100F0A7F9801BA84207D9206C40F074
:100600000400206484F83C700320E9E72068006857
:100610008007EBD521686FF012000860206C40F471
:10062000007020642068816811F0405F13D1A169D7
:1006300089B9C16A11F4700F02D0806840050AD4EC
:10064000206C20F480702064206CC00403D4206CE3
:1006500040F0010020640020C2E7000018B500212E
:10066000009190F83C20012A07D0012280F83C201C
:1006700002689368DB0702D011E0022018BD93687E
:1006800043F001039360204A204B1268B2FBF3F25F
:1006900002EB420200E0521E0092002AFBD10268E7
:1006A0009368DB072DD0036C40F20164A34343F44D
:1006B0008073036453685B0505D5036C23F4005312
:1006C00043F480530364036CDB0404D5436C23F0D0
:1006D0000603436400E0416480F83C100C496FF06D
:1006E0002203136049680068C90602D0094988429C
:1006F00007D1816811F0405F03D1816841F08041EA
:100700008160002018BD00001C00002040420F0046
:10071000002301400020014090F83C1001290CD03A
:10072000012180F83C1001688A6822F001028A6089
:1007300001688968C90702D007E002207047016C90
:1007400021F4885141F001010164002180F83C103E
:100750000846704770B5044600F0F4F80546601C82
:1007600002D004480078044400F0ECF8401BA0429A
:10077000FAD370BD10000020012801D10149486062
:100780007047000000000020044910B50A680242CA
:1007900002D00860FFF7F0FF10BD0000143C0140DC
:1007A0002DE9F84FDFF860B100224FF001084FF05B
:1007B000030A4FF00F090BF1040E00BF0B6808FA93
:1007C00002F42340A3426ED14D68022D01D0122DB8
:1007D0000ED1D50800EB850CDCF820505607F70E3B
:1007E00009FA07F6B5430E69BE402E43CCF82060E7
:1007F000066855000F790AFA05FC07F0030726EA98
:100800000C06AF40374307604E68012E05D0022E1C
:1008100003D0112E01D0122E0ED18668CF6826EAA1
:100820000C06AF40374387604668A6430C79C4F393
:100830000014944034434460C6688C6826EA0C0671
:10084000AC403443C4604C68E40056D52F4C256856
:1008500045F480452560246822F0030504F48044B3
:1008600000942B4C2E19D6F8084895072F0F09FA3B
:1008700007F5AC43274DA84201D1002515E0264DD0
:10088000A84201D1012510E0244DA84201D1022542
:100890000BE0234DA84201D1032506E0214DA842DB
:1008A00002D1042501E028E00725BD402543C6F814
:1008B0000858DBF800405D464E689C43F60300D5BF
:1008C0001C432C60DEF8004075464E689C43B6031E
:1008D00000D51C432C600C4D08352C684E689C4399
:1008E000F60200D51C432C60074D0C352C684E6871
:1008F0009C43B60200D51C432C60521C102AFFF406
:100900005DAFBDE8F88F0000003C01404438024074
:100910000030014000000240000402400008024094
:10092000000C0240001002400069084000D0012085
:10093000704742694A40426170470AB1816170471D
:100940000904FBE7014880687047000010000020A0
:1009500002488168027811448160704710000020CD
:100960000B4810B5016841F400710160016841F461
:1009700080610160016841F480710160032000F032
:1009800097F8002000F006F800F024F8002010BDD1
:10099000003C024070B50D4D04464FF47A71287842
:1009A000B1FBF0F00A490968B1FBF0F000F0FBFA86
:1009B00048B9102C07D200222146501E00F058F8EA
:1009C00000206C6070BD012070BD00001000002090
:1009D0001C0000201F4808B5016841F480410160F7
:1009E000006800F4804000901A48001F016841F040
:1009F00080510160006800F080500090072000F0F6
:100A000057F8002211466FF00B0000F031F8002279
:100A100011466FF00A0000F02BF8002211466FF02B
:100A2000090000F025F800221146501F00F020F8C0
:100A300000221146101F00F01BF800221146901EE4
:100A400000F016F80022BDE808401146501E00F0E4
:100A50000FB800004438024000F01F02012191400D
:100A60004009800000F1E020C0F80011704700004C
:100A7000F0B40E4B1B680C46C3F30223C3F1070509
:100A8000042D00D90425191D072901D2002300E0F7
:100A9000DB1E012606FA05F1491E214099409E40C1
:100AA000761E16403143F0BC00F04EBB0CED00E06A
:100AB000064900F0070208684FF6FF03184040EAB5
:100AC0000220034A10430860704700000CED00E06C
:100AD0000000FA052DE9F0470E46050065D0DFF865
:100AE0001481D8F80000F7B200F00F00B04207D22E
:100AF00088F80070D8F8000000F00F00B04254D120
:100B000028683D4C810712D5400703D5206840F482
:100B1000E05020602878000703D5206840F460404A
:100B200020602068A96820F0F00008432060287841
:100B3000C0072DD0304968680839012812D0022832
:100B400013D0032811D00968890700292DDA2168FC
:100B500021F0030101432160FFF7F4FE814641F2D9
:100B6000883A0EE009688903EFE709688901ECE734
:100B7000FFF7E8FEA0EB0901514502D90320BDE8CB
:100B8000F0872068696800F00C00B0EB810FEFD1AE
:100B9000D8F80010404601F00F01B14207D90770A4
:100BA000006800F00F00B04201D00120E7E728788C
:100BB000400705D52068E96820F4E050084320602C
:100BC0002878000706D52068296920F4604040EAAB
:100BD000C100206000F01CF82168084AC1F303112D
:100BE000515CC840064908600020FFF7D3FE002092
:100BF000C5E70000003C024008380240B813000876
:100C00001C00002001480068704700001C00002004
:100C1000154810B5006810F00C02144813D04110AC
:100C2000042A0FD0082A0ED10F4C241F22682368F3
:100C300002F03F025B0207D52068C0F38810A0FBDA
:100C4000010106E0084610BD2168C1F38811A1FB2F
:100C500000010023FFF7BCFA2168C1F30141491CE0
:100C60004900B0FBF1F010BD083802400024F40048
:100C70002DE9F84F050076D02878DFF8F8B2BE4CA1
:100C8000C00749D0DBF800105846C1F381010129A3
:100C900008D00068C0F3810002280AD1201D006836
:100CA000400206D52068800336D568680028E2D067
:100CB00032E06868B0F5803F10D0B0F5A02F206812
:100CC00010D020F480302060206820F48020206044
:100CD0006868A0B1FFF736FE06460CE0206840F4D5
:100CE0008030F4E740F480202060F7E7FFF72AFE29
:100CF000801B642873D820688003F7D50CE0FFF7C9
:100D000021FE064605E000BFFFF71CFE801B64289D
:100D1000F0D820688003F7D42878DFF86082800755
:100D20004FF000093ED5DBF80010584611F00C0FCB
:100D300009D00068C0F3810002280BD18D48001F44
:100D40000068400206D42068800715D5E8680128AD
:100D500009D111E0E868B8B10120C8F80000FFF738
:100D6000F1FD064605E002E1FFF7ECFD801B0228DD
:100D7000C0D820688007F7D52068296920F0F800DE
:100D800040EAC10020600DE0C8F80090FFF7DAFDEE
:100D9000064604E0FFF7D6FD801B02281FD8206816
:100DA0008007F7D42878000722D5724E7448696905
:100DB0006C3671B101210160FFF7C4FD074604E004
:100DC000FFF7C0FDC01B022809D830688007F7D59F
:100DD0000EE0C0F80090FFF7B5FD074605E083E0A0
:100DE000FFF7B0FDC01B02287ED830688007F7D41B
:100DF0002878400768D5DFF87CA100270AF1380A77
:100E0000DAF80000C0000BD4DAF8001041F080518D
:100E1000CAF80010DAF80000012700F080500090B6
:100E2000584E3068C00510D4306840F4807030608F
:100E3000FFF788FD009005E0FFF784FD0099401A58
:100E4000022851D83068C005F6D54A4EA8686836E1
:100E500001280FD00528306810D020F00100306044
:100E6000306820F004003060A868B8B1FFF76AFD70
:100E700000900FE0306840F00100F4E740F004001B
:100E80003060F7E7FFF75EFD0099411A41F28830C4
:100E9000814264D830688007F4D50EE0FFF752FD38
:100EA000009007E0FFF74EFD0099411A41F28830AB
:100EB000814254D830688007F4D42FB1DAF800109A
:100EC00021F08051CAF80010A869C0B3DBF8001007
:100ED000C1F3810102294AD00228484607D0C8F848
:100EE0006000FFF72FFD00E039E005463AE0474695
:100EF000C8F86000FFF726FD064604E0FFF722FD74
:100F0000801B02282BD820688001F7D4D5E907017F
:100F10000843A96A1C4A490802EB01416A6A41EA8E
:100F20008211084395F82C1040EA01611148001F16
:100F3000016001203866FFF705FD054605E014E075
:100F4000FFF700FD401B022809D820688001F7D573
:100F50000BE000BFFFF7F6FC401B022802D903207C
:100F6000BDE8F88F20688001F4D40020F8E7012064
:100F7000F6E700000838024000380240000047420F
:100F8000800E4742007000400000FFFF4FF0E0215C
:100F90000428086903D020F004000861704740F07D
:100FA0000400FAE7704710B5401EB0F1807F01D30E
:100FB000012010BD4FF0E02460610F21601700F0A8
:100FC000C3F80020A06107202061002010BD10B5EB
:100FD000FFF7E8FF10BDFEE77FB511480F49002479
:100FE000C0E900148460046184610E490462C0E9B0
:100FF0000A140125C460C56145610463FFF78FFAD7
:1010000000B1FEE70520CDE90005694602940448D9
:10101000FFF7D8F9002800D0FEE77FBD002001408F
:10102000200000200100000F2DE9F0433E4887B06A
:101030000024016841F001010160016801F0010133
:101040000591016841F004010160016801F00401AB
:101050000591016841F010010160016801F0100183
:101060000591016841F002010160016801F002018F
:101070000591016841F00801016000682B4F00F004
:1010800008000590002210213846FFF756FCDFF8D3
:10109000A080002280214046FFF74FFCDFF89490AB
:1010A0004FF40056002231464846FFF746FC012522
:1010B00021480095CDE9010469462048FFF770FBFF
:1010C00010200090CDE90154694638460394FFF79B
:1010D00067FB80200090CDE90154694640460394A7
:1010E000FFF75EFBA803CDE9000469464046029481
:1010F000FFF756FBCDE90064694611480294FFF7FB
:101100004FFB0096CDE90154694648460394FFF72A
:1011100047FB002211460620FFF7AAFC0620FFF736
:101120009BFC07B0BDE8F083303802400008024065
:1011300000100240000C02400000111000000240AC
:1011400000040240FEE770470907090E002806DA8E
:1011500000F00F0000F1E02080F8141D704700F14E
:10116000E02080F8001470477047704710B5FFF713
:10117000EFFBBDE81040FFF72ABF000030B525485F
:1011800093B00024016841F080510160006800F0D4
:10119000805011902048016841F44041016000688E
:1011A000C02100F4404011900120039010200490D1
:1011B00008200225CDE9080100950421CDE90A1097
:1011C000CDE906546846FFF753FD00B1FEE70F2056
:1011D000CDE90C054FF4A050CDE90E404FF48050FE
:1011E000109003210CA8FFF775FC00B1FEE7FFF794
:1011F00009FD4FF47A71B0FBF1F0FFF7D4FE042043
:10120000FFF7C4FE00221146501EFFF731FC13B059
:1012100030BD0000403802400070004010480168B6
:1012200041F4700101600F48016841F00101016063
:101230000C4A00210832116002680B4B1A40026010
:10124000031D0A4A1A60026822F4802202600548DF
:101250000C30016002495806803908607047000070
:1012600088ED00E000380240FFFFF6FE1030002459
:10127000FEE702E008C8121F08C1002AFAD1704731
:101280007047002001E001C1121F002AFBD1704706
:10129000FFF766FBFFF772FFFFF7C6FEFFF79CFE46
:1012A0003E4F3F4C3F4E4FF0FF3A4FF4804B40F6DD
:1012B000B8394FF000084FF400553B48FFF7CEF91E
:1012C00051463948FFF778F918B93748FFF724F93C
:1012D000A0603548FFF720FA59463846FFF724FB4F
:1012E00000B10120207029463048FFF71DFB00B1F6
:1012F00001206070616899B3002280213846FFF7B1
:101300001CFB002210212A48FFF717FBC4F80C80B1
:1013100029463046FFF70DFB6420FFF71BFAE06813
:10132000401CE0600428F3DB01212248FFF7FCFAAF
:101330000028C2D1C4F80C8029463046FFF7F9FADC
:101340006420FFF707FAE068401CE0601028F3DB38
:10135000002229463046FFF7F0FAC4F80480ACE7D3
:10136000FFE7A2684A4500D270B14A4501D920780A
:1013700060B1002280213846FFF7DFFA00221021F9
:101380000B48FFF7DAFA98E70122F3E70022802101
:101390003846FFF7D2FA0122F1E7000000100240C0
:1013A00000000020000C0240200000200004024049
:1013B00000080240000002400000000000000000A1
:1013C0000102030406070809E813000800000020D2
:1013D00020000000721200080814000820000020FD
:1013E0004804000082120008000000000000000015
:1013F00000000000000000000100000010000000DC
:08140000000000000024F400CC
:040000050800019955
:00000001FF
